:100000000C942A000C94D9000C943C000C943C00F5
:100010000C943C000C943C000C943C000C943C0070
:100020000C943C000C943C000C943C000C943C0060
:100030000C943C000C943C000C943C000C943C0050
:100040000C943C000C943C000C943C000C943C0040
:100050000C943C0011241FBECFE5D8E0DEBFCDBF1D
:1000600020E0A0E6B0E001C01D92A236B207E1F7A1
:100070000E94F5010C9492020C94000062E080E36F
:100080000E94E80060E089E30E94FA0061E089E3F1
:100090000E94FA0062E089E30E94FA0060E086E3D1
:1000A0000E94FA0061E086E30E94FA0062E086E3C3
:1000B0000E94FA001092600080916000811107C0D8
:1000C00045E060E089E30E94330110926100809175
:1000D0006000811108C045E061E089E30E9466018B
:1000E00081E08093610080916000811108C045E04B
:1000F00062E089E30E94330182E080936100809195
:100100006000811108C045E061E089E30E9466015A
:1001100081E08093610080916000813069F6809178
:100120006100811107C062E086E30E940D0181E059
:100130008093610080916100813071F462E086E318
:100140000E940D0105E021E046E361E089E30E94A1
:100150009D0182E08093610080916100823031F5E1
:1001600062E086E30E94200162E089E30E940D01C3
:1001700045E060E086E30E94330160E086E30E9490
:100180000D0162E089E30E94200105E021E046E3E1
:1001900061E089E30E949D0160E086E30E94200106
:1001A00062E086E30E940D011092610010926000EF
:1001B00083CF1F920F920FB60F9211248F9381E07D
:1001C000809360008F910F900FBE0F901F90189535
:1001D000893331F0863321F0833311F0803331F4E9
:1001E000683030F40E947A0280E0089581E008953A
:1001F00082E00895893331F0863321F0833311F0A2
:10020000803339F4683038F44FEF0E94FA0180E00F
:10021000089581E0089582E00895893331F08633AE
:1002200021F0833311F0803339F4683038F441E041
:100230000E942D0280E0089581E0089582E00895F3
:10024000893331F0863321F0833311F0803339F470
:10025000683038F440E00E942D0280E0089581E08B
:10026000089582E008950F931F93CF93DF9389330E
:1002700031F0863321F0833311F08033F9F46830A4
:10028000F8F4142F062FD82F41E00E942D02C0E071
:1002900003C00E948302CF5FEC2FF0E0212F30E0FB
:1002A000220F331F220F331FE217F30794F340E0AE
:1002B000602F8D2F0E942D0280E003C081E001C0DD
:1002C00082E0DF91CF911F910F9108950F931F93BB
:1002D000CF93DF93893331F0863321F0833311F0EC
:1002E000803319F5683018F5042F162FC82F41E018
:1002F0000E942D02D0E007C0612F8C2F0E945E0269
:100300000E948302DF5FED2FF0E0202F30E0220F0C
:10031000331F220F331FE217F30774F340E0612FFE
:100320008C2F0E942D0280E003C081E001C082E09A
:10033000DF91CF911F910F910895EF92FF920F934C
:100340001F93CF93DF93893331F0863321F08333CA
:1003500011F08033E1F56830E0F5493331F0463390
:1003600021F0433311F04033B1F52830B0F5F22ECF
:10037000142FD62FC82F41E00E942D0241E06F2D8F
:10038000812F0E942D02E12C0BC06D2F8C2F0E941B
:100390005E026F2D812F0E945E020E948302E39411
:1003A0002E2D30E0802F90E0880F991F880F991F25
:1003B0002817390754F340E06D2F8C2F0E942D022F
:1003C00040E06F2D812F0E942D0280E007C081E068
:1003D00005C082E003C081E001C082E0DF91CF91DF
:1003E0001F910F91FF90EF9008950E943E0080E0D2
:1003F00090E00895893331F0863321F0833311F092
:10040000803329F5683028F59FEF940F9E3F18F14F
:100410004F3F71F4E82FF0E0218181E090E002C0CD
:10042000880F991F6A95E2F7822B818380E00895F7
:10043000E82FF0E0218181E090E002C0880F991F51
:100440006A95E2F780958223818380E0089581E0B8
:10045000089582E0089583E00895893331F086336A
:1004600021F0833311F0803319F5683018F54230EC
:1004700018F5413071F4E82FF0E0228181E090E03E
:1004800002C0880F991F6A95E2F7822B828380E071
:100490000895E82FF0E0228181E090E002C0880F0B
:1004A000991F6A95E2F780958223828380E0089500
:1004B00081E0089582E0089584E00895893331F061
:1004C000863321F0833311F0803381F4683080F477
:1004D000E82FF0E0228181E090E002C0880F991FB0
:1004E0006A95E2F78227828380E0089581E008958B
:1004F00082E008958BB780648BBF85B7836085BF2A
:10050000789480E0089513BE8CE082BF83B7856045
:1005100083BF08B600FEFDCF13BE88B7816088BFD9
:0805200080E00895F894FFCF7C
:00000001FF
